{
  "contractName": "Staking",
  "abi": [
    {
      "constant": true,
      "inputs": [
        {
          "name": "_address",
          "type": "address"
        }
      ],
      "name": "isOwner",
      "outputs": [
        {
          "name": "",
          "type": "bool"
        }
      ],
      "payable": false,
      "stateMutability": "view",
      "type": "function"
    },
    {
      "constant": true,
      "inputs": [],
      "name": "fttToken",
      "outputs": [
        {
          "name": "",
          "type": "address"
        }
      ],
      "payable": false,
      "stateMutability": "view",
      "type": "function"
    },
    {
      "constant": true,
      "inputs": [
        {
          "name": "",
          "type": "address"
        }
      ],
      "name": "tokenTotalStaked",
      "outputs": [
        {
          "name": "",
          "type": "uint256"
        }
      ],
      "payable": false,
      "stateMutability": "view",
      "type": "function"
    },
    {
      "constant": true,
      "inputs": [],
      "name": "zoiToken",
      "outputs": [
        {
          "name": "",
          "type": "address"
        }
      ],
      "payable": false,
      "stateMutability": "view",
      "type": "function"
    },
    {
      "constant": true,
      "inputs": [],
      "name": "owner",
      "outputs": [
        {
          "name": "",
          "type": "address"
        }
      ],
      "payable": false,
      "stateMutability": "view",
      "type": "function"
    },
    {
      "constant": true,
      "inputs": [
        {
          "name": "",
          "type": "address"
        },
        {
          "name": "",
          "type": "address"
        }
      ],
      "name": "StakeMap",
      "outputs": [
        {
          "name": "amount",
          "type": "uint256"
        },
        {
          "name": "requested",
          "type": "bool"
        }
      ],
      "payable": false,
      "stateMutability": "view",
      "type": "function"
    },
    {
      "constant": false,
      "inputs": [
        {
          "name": "_newOwner",
          "type": "address"
        }
      ],
      "name": "transferOwnership",
      "outputs": [],
      "payable": false,
      "stateMutability": "nonpayable",
      "type": "function"
    },
    {
      "inputs": [],
      "payable": false,
      "stateMutability": "nonpayable",
      "type": "constructor"
    },
    {
      "payable": true,
      "stateMutability": "payable",
      "type": "fallback"
    },
    {
      "anonymous": false,
      "inputs": [
        {
          "indexed": false,
          "name": "_claimableAmount",
          "type": "uint256"
        },
        {
          "indexed": false,
          "name": "_stakedAmount",
          "type": "uint256"
        }
      ],
      "name": "Claimed",
      "type": "event"
    },
    {
      "anonymous": false,
      "inputs": [
        {
          "indexed": false,
          "name": "_fttAmount",
          "type": "uint256"
        },
        {
          "indexed": false,
          "name": "_stakeMapAmount",
          "type": "uint256"
        },
        {
          "indexed": false,
          "name": "_totalStakedAmount",
          "type": "uint256"
        }
      ],
      "name": "Staked",
      "type": "event"
    },
    {
      "constant": false,
      "inputs": [
        {
          "name": "newZoi",
          "type": "address"
        }
      ],
      "name": "setZoiToken",
      "outputs": [],
      "payable": false,
      "stateMutability": "nonpayable",
      "type": "function"
    },
    {
      "constant": false,
      "inputs": [
        {
          "name": "newFtt",
          "type": "address"
        }
      ],
      "name": "setFttToken",
      "outputs": [],
      "payable": false,
      "stateMutability": "nonpayable",
      "type": "function"
    },
    {
      "constant": false,
      "inputs": [
        {
          "name": "_amount",
          "type": "uint256"
        }
      ],
      "name": "stakeFtt",
      "outputs": [
        {
          "name": "",
          "type": "bool"
        }
      ],
      "payable": false,
      "stateMutability": "nonpayable",
      "type": "function"
    },
    {
      "constant": true,
      "inputs": [
        {
          "name": "_user",
          "type": "address"
        }
      ],
      "name": "getStakedAmount",
      "outputs": [
        {
          "name": "",
          "type": "uint256"
        }
      ],
      "payable": false,
      "stateMutability": "view",
      "type": "function"
    },
    {
      "constant": false,
      "inputs": [
        {
          "name": "_receiver",
          "type": "address"
        }
      ],
      "name": "claim",
      "outputs": [
        {
          "name": "",
          "type": "uint256"
        }
      ],
      "payable": false,
      "stateMutability": "nonpayable",
      "type": "function"
    },
    {
      "constant": false,
      "inputs": [
        {
          "name": "_amount",
          "type": "uint256"
        }
      ],
      "name": "releaseStake",
      "outputs": [
        {
          "name": "",
          "type": "bool"
        }
      ],
      "payable": false,
      "stateMutability": "nonpayable",
      "type": "function"
    }
  ],
  "bytecode": "0x608060405234801561001057600080fd5b50336000806101000a81548173ffffffffffffffffffffffffffffffffffffffff021916908373ffffffffffffffffffffffffffffffffffffffff16021790555061134a806100606000396000f3006080604052600436106100c5576000357c0100000000000000000000000000000000000000000000000000000000900463ffffffff1680631e83409a146100db5780632f54bf6e146101325780633ea9d0921461018d57806341bcc52f146101d05780634302a2f21461022757806345f544851461027e5780634ca31f66146102c35780634da6a5561461031a5780636692421a146103715780638da5cb5b146103b4578063dcb431911461040b578063e0d17af01461048d578063f2fde38b146104d2575b6100ce33610515565b15156100d957600080fd5b005b3480156100e757600080fd5b5061011c600480360381019080803573ffffffffffffffffffffffffffffffffffffffff16906020019092919050505061056e565b6040518082815260200191505060405180910390f35b34801561013e57600080fd5b50610173600480360381019080803573ffffffffffffffffffffffffffffffffffffffff169060200190929190505050610515565b604051808215151515815260200191505060405180910390f35b34801561019957600080fd5b506101ce600480360381019080803573ffffffffffffffffffffffffffffffffffffffff169060200190929190505050610777565b005b3480156101dc57600080fd5b506101e56107cf565b604051808273ffffffffffffffffffffffffffffffffffffffff1673ffffffffffffffffffffffffffffffffffffffff16815260200191505060405180910390f35b34801561023357600080fd5b50610268600480360381019080803573ffffffffffffffffffffffffffffffffffffffff1690602001909291905050506107f5565b6040518082815260200191505060405180910390f35b34801561028a57600080fd5b506102a96004803603810190808035906020019092919050505061080d565b604051808215151515815260200191505060405180910390f35b3480156102cf57600080fd5b506102d8610bf6565b604051808273ffffffffffffffffffffffffffffffffffffffff1673ffffffffffffffffffffffffffffffffffffffff16815260200191505060405180910390f35b34801561032657600080fd5b5061035b600480360381019080803573ffffffffffffffffffffffffffffffffffffffff169060200190929190505050610c1c565b6040518082815260200191505060405180910390f35b34801561037d57600080fd5b506103b2600480360381019080803573ffffffffffffffffffffffffffffffffffffffff169060200190929190505050610cc7565b005b3480156103c057600080fd5b506103c9610d1f565b604051808273ffffffffffffffffffffffffffffffffffffffff1673ffffffffffffffffffffffffffffffffffffffff16815260200191505060405180910390f35b34801561041757600080fd5b5061046c600480360381019080803573ffffffffffffffffffffffffffffffffffffffff169060200190929190803573ffffffffffffffffffffffffffffffffffffffff169060200190929190505050610d44565b60405180838152602001821515151581526020019250505060405180910390f35b34801561049957600080fd5b506104b860048036038101908080359060200190929190505050610d82565b604051808215151515815260200191505060405180910390f35b3480156104de57600080fd5b50610513600480360381019080803573ffffffffffffffffffffffffffffffffffffffff169060200190929190505050611255565b005b60008173ffffffffffffffffffffffffffffffffffffffff166000809054906101000a900473ffffffffffffffffffffffffffffffffffffffff1673ffffffffffffffffffffffffffffffffffffffff16149050919050565b600080600060036000600260009054906101000a900473ffffffffffffffffffffffffffffffffffffffff1673ffffffffffffffffffffffffffffffffffffffff1673ffffffffffffffffffffffffffffffffffffffff16815260200190815260200160002060003373ffffffffffffffffffffffffffffffffffffffff1673ffffffffffffffffffffffffffffffffffffffff16815260200190815260200160002060000154915061062b6005836112ac90919063ffffffff16565b9050600160009054906101000a900473ffffffffffffffffffffffffffffffffffffffff1673ffffffffffffffffffffffffffffffffffffffff16636fd07a7a85836040518363ffffffff167c0100000000000000000000000000000000000000000000000000000000028152600401808373ffffffffffffffffffffffffffffffffffffffff1673ffffffffffffffffffffffffffffffffffffffff16815260200182815260200192505050602060405180830381600087803b1580156106f257600080fd5b505af1158015610706573d6000803e3d6000fd5b505050506040513d602081101561071c57600080fd5b8101908080519060200190929190505050507fc83b5086ce94ec8d5a88a9f5fea4b18a522bb238ed0d2d8abd959549a80c16b88183604051808381526020018281526020019250505060405180910390a18092505050919050565b61078033610515565b151561078b57600080fd5b80600160006101000a81548173ffffffffffffffffffffffffffffffffffffffff021916908373ffffffffffffffffffffffffffffffffffffffff16021790555050565b600260009054906101000a900473ffffffffffffffffffffffffffffffffffffffff1681565b60046020528060005260406000206000915090505481565b60008060036000600260009054906101000a900473ffffffffffffffffffffffffffffffffffffffff1673ffffffffffffffffffffffffffffffffffffffff1673ffffffffffffffffffffffffffffffffffffffff16815260200190815260200160002060003373ffffffffffffffffffffffffffffffffffffffff1673ffffffffffffffffffffffffffffffffffffffff168152602001908152602001600020600001541115156108be57600080fd5b6109328260046000600260009054906101000a900473ffffffffffffffffffffffffffffffffffffffff1673ffffffffffffffffffffffffffffffffffffffff1673ffffffffffffffffffffffffffffffffffffffff168152602001908152602001600020546112e790919063ffffffff16565b60046000600260009054906101000a900473ffffffffffffffffffffffffffffffffffffffff1673ffffffffffffffffffffffffffffffffffffffff1673ffffffffffffffffffffffffffffffffffffffff16815260200190815260200160002081905550600260009054906101000a900473ffffffffffffffffffffffffffffffffffffffff1673ffffffffffffffffffffffffffffffffffffffff1663a9059cbb33846040518363ffffffff167c0100000000000000000000000000000000000000000000000000000000028152600401808373ffffffffffffffffffffffffffffffffffffffff1673ffffffffffffffffffffffffffffffffffffffff16815260200182815260200192505050602060405180830381600087803b158015610a5c57600080fd5b505af1158015610a70573d6000803e3d6000fd5b505050506040513d6020811015610a8657600080fd5b810190808051906020019092919050505050610b4c8260036000600260009054906101000a900473ffffffffffffffffffffffffffffffffffffffff1673ffffffffffffffffffffffffffffffffffffffff1673ffffffffffffffffffffffffffffffffffffffff16815260200190815260200160002060003373ffffffffffffffffffffffffffffffffffffffff1673ffffffffffffffffffffffffffffffffffffffff168152602001908152602001600020600001546112e790919063ffffffff16565b60036000600260009054906101000a900473ffffffffffffffffffffffffffffffffffffffff1673ffffffffffffffffffffffffffffffffffffffff1673ffffffffffffffffffffffffffffffffffffffff16815260200190815260200160002060003373ffffffffffffffffffffffffffffffffffffffff1673ffffffffffffffffffffffffffffffffffffffff16815260200190815260200160002060000181905550919050565b600160009054906101000a900473ffffffffffffffffffffffffffffffffffffffff1681565b600060036000600260009054906101000a900473ffffffffffffffffffffffffffffffffffffffff1673ffffffffffffffffffffffffffffffffffffffff1673ffffffffffffffffffffffffffffffffffffffff16815260200190815260200160002060008373ffffffffffffffffffffffffffffffffffffffff1673ffffffffffffffffffffffffffffffffffffffff168152602001908152602001600020600001549050919050565b610cd033610515565b1515610cdb57600080fd5b80600260006101000a81548173ffffffffffffffffffffffffffffffffffffffff021916908373ffffffffffffffffffffffffffffffffffffffff16021790555050565b6000809054906101000a900473ffffffffffffffffffffffffffffffffffffffff1681565b6003602052816000526040600020602052806000526040600020600091509150508060000154908060010160009054906101000a900460ff16905082565b600068056bc75e2d631000008210151515610d9c57600080fd5b600260009054906101000a900473ffffffffffffffffffffffffffffffffffffffff1673ffffffffffffffffffffffffffffffffffffffff166323b872dd3330856040518463ffffffff167c0100000000000000000000000000000000000000000000000000000000028152600401808473ffffffffffffffffffffffffffffffffffffffff1673ffffffffffffffffffffffffffffffffffffffff1681526020018373ffffffffffffffffffffffffffffffffffffffff1673ffffffffffffffffffffffffffffffffffffffff1681526020018281526020019350505050602060405180830381600087803b158015610e9557600080fd5b505af1158015610ea9573d6000803e3d6000fd5b505050506040513d6020811015610ebf57600080fd5b810190808051906020019092919050505050610f858260036000600260009054906101000a900473ffffffffffffffffffffffffffffffffffffffff1673ffffffffffffffffffffffffffffffffffffffff1673ffffffffffffffffffffffffffffffffffffffff16815260200190815260200160002060003373ffffffffffffffffffffffffffffffffffffffff1673ffffffffffffffffffffffffffffffffffffffff1681526020019081526020016000206000015461130090919063ffffffff16565b60036000600260009054906101000a900473ffffffffffffffffffffffffffffffffffffffff1673ffffffffffffffffffffffffffffffffffffffff1673ffffffffffffffffffffffffffffffffffffffff16815260200190815260200160002060003373ffffffffffffffffffffffffffffffffffffffff1673ffffffffffffffffffffffffffffffffffffffff1681526020019081526020016000206000018190555061109e8260046000600260009054906101000a900473ffffffffffffffffffffffffffffffffffffffff1673ffffffffffffffffffffffffffffffffffffffff1673ffffffffffffffffffffffffffffffffffffffff1681526020019081526020016000205461130090919063ffffffff16565b60046000600260009054906101000a900473ffffffffffffffffffffffffffffffffffffffff1673ffffffffffffffffffffffffffffffffffffffff1673ffffffffffffffffffffffffffffffffffffffff168152602001908152602001600020819055507fc8acfabcfb3af3df23b7b8a1aa1371d042bee71e137eeedc881ffa8f3c4462618260036000600260009054906101000a900473ffffffffffffffffffffffffffffffffffffffff1673ffffffffffffffffffffffffffffffffffffffff1673ffffffffffffffffffffffffffffffffffffffff16815260200190815260200160002060003373ffffffffffffffffffffffffffffffffffffffff1673ffffffffffffffffffffffffffffffffffffffff1681526020019081526020016000206000015460046000600260009054906101000a900473ffffffffffffffffffffffffffffffffffffffff1673ffffffffffffffffffffffffffffffffffffffff1673ffffffffffffffffffffffffffffffffffffffff1681526020019081526020016000205460405180848152602001838152602001828152602001935050505060405180910390a160019050919050565b61125e33610515565b151561126957600080fd5b806000806101000a81548173ffffffffffffffffffffffffffffffffffffffff021916908373ffffffffffffffffffffffffffffffffffffffff16021790555050565b60008060008414156112c157600091506112e0565b82840290508284828115156112d257fe5b041415156112dc57fe5b8091505b5092915050565b60008282111515156112f557fe5b818303905092915050565b600080828401905083811015151561131457fe5b80915050929150505600a165627a7a7230582029bab92adf16067c3fd3bd976290a58f58291abcb23a4951357f1a9c450358650029",
  "source": "pragma solidity ^0.4.20;\nimport \"./Ownable.sol\";\nimport \"./SafeMath.sol\";\nimport \"./IZoiToken.sol\";\nimport \"./ERC20.sol\";\n\n\ncontract Staking is Ownable {\n\n  using SafeMath for uint256;\n\n  struct stakingInfo {\n    uint256 amount;\n    bool requested;\n  }\n\n  IZoiToken public zoiToken;\n  ERC20 public fttToken;\n\n  mapping (address => mapping(address => stakingInfo)) public StakeMap;\n  mapping (address => uint) public tokenTotalStaked;\n\n  event Claimed(uint256 _claimableAmount, uint256 _stakedAmount);\n  event Staked(uint256 _fttAmount, uint256 _stakeMapAmount, uint256 _totalStakedAmount);\n\n  constructor() public {\n  }\n\n  /**\n    * @dev set an address for ZOI token to be able to call issueZoi() function while claiming tokens\n    * @param newZoi proper address of ZOI token. Could be upgraded in case of different versions/releases\n    */\n  function setZoiToken(IZoiToken newZoi) onlyOwner {\n    zoiToken = IZoiToken(newZoi);\n  }\n\n  /**\n    * @dev set an address for FTT token to be able to call issueZoi() function while claiming tokens\n    * @param newFtt proper address of FTT token. Could be upgraded in case of different versions/releases\n    */\n  function setFttToken(address newFtt) onlyOwner {\n    fttToken = ERC20(newFtt);\n  }\n\n  /**\n    * @dev stake a specific amount to a token\n    * @param _amount the amount to be staked.\n    * To meet track and trace regulatory requirements, pharmaceutical companies can stake 100 FTT tokens to\n    * generate a batch*** of Compliance Tracking tokens\n    */\n  function stakeFtt(uint256 _amount) public returns (bool) {\n    require(_amount >= 100000000000000000000); //TODO: proper representation of 18 decimals\n    fttToken.transferFrom(msg.sender, address(this), _amount);\n    StakeMap[fttToken][msg.sender].amount = StakeMap[fttToken][msg.sender].amount.add(_amount);\n    tokenTotalStaked[fttToken] = tokenTotalStaked[fttToken].add(_amount);\n    emit Staked(_amount, StakeMap[fttToken][msg.sender].amount, tokenTotalStaked[fttToken]);\n    return true;\n  }\n\n  /**\n    * @dev returns staked amount per user\n    * @param _user the specific address of person who staked\n    */\n  function getStakedAmount(address _user) public view returns(uint256) {\n    return StakeMap[fttToken][_user].amount;\n  }\n\n  /**\n    * @dev claim dividends for a particular token that user has stake in\n    * @param _receiver the address which the claim is paid to\n    */\n  function claim(address _receiver) public returns (uint) {\n    uint256 stakedAmount = StakeMap[fttToken][msg.sender].amount;\n    //the amount per token for this user for this claim\n    uint256 claimableAmount = stakedAmount.mul(5); //total amount that can be claimed by this user\n    zoiToken.issueZoi(_receiver, claimableAmount);\n    emit Claimed(claimableAmount, stakedAmount);\n    return claimableAmount;\n\n  }\n\n  function releaseStake(uint256 _amount) public returns (bool) {\n    require(StakeMap[fttToken][msg.sender].amount > 0);\n    tokenTotalStaked[fttToken] = tokenTotalStaked[fttToken].sub(_amount);\n    fttToken.transfer(msg.sender, _amount);\n    StakeMap[fttToken][msg.sender].amount = StakeMap[fttToken][msg.sender].amount.sub(_amount);\n  }\n\n  /**\n    * @dev for receiving a plain Ether for the contract to be able to call ZoiToken. Could be used only by contract owner\n    */\n  function() payable onlyOwner {}\n}\n",
  "sourcePath": "/Users/elenaderymova/projects/work/farmatrust/zoi-platform/contracts/Staking.sol",
  "compiler": {
    "name": "solc",
    "version": "0.4.24+commit.e67f0147.Emscripten.clang"
  },
  "schemaVersion": "2.0.0",
  "updatedAt": "2018-12-12T08:46:27.864Z"
}