{
  "contractName": "Staking",
  "abi": [
    {
      "constant": true,
      "inputs": [
        {
          "name": "_address",
          "type": "address"
        }
      ],
      "name": "isOwner",
      "outputs": [
        {
          "name": "",
          "type": "bool"
        }
      ],
      "payable": false,
      "stateMutability": "view",
      "type": "function"
    },
    {
      "constant": true,
      "inputs": [
        {
          "name": "",
          "type": "address"
        }
      ],
      "name": "tokenTotalStaked",
      "outputs": [
        {
          "name": "",
          "type": "uint256"
        }
      ],
      "payable": false,
      "stateMutability": "view",
      "type": "function"
    },
    {
      "constant": true,
      "inputs": [],
      "name": "owner",
      "outputs": [
        {
          "name": "",
          "type": "address"
        }
      ],
      "payable": false,
      "stateMutability": "view",
      "type": "function"
    },
    {
      "constant": true,
      "inputs": [
        {
          "name": "",
          "type": "address"
        },
        {
          "name": "",
          "type": "address"
        }
      ],
      "name": "StakeMap",
      "outputs": [
        {
          "name": "amount",
          "type": "uint256"
        },
        {
          "name": "requested",
          "type": "bool"
        },
        {
          "name": "releaseDate",
          "type": "uint256"
        }
      ],
      "payable": false,
      "stateMutability": "view",
      "type": "function"
    },
    {
      "constant": false,
      "inputs": [
        {
          "name": "_newOwner",
          "type": "address"
        }
      ],
      "name": "transferOwnership",
      "outputs": [],
      "payable": false,
      "stateMutability": "nonpayable",
      "type": "function"
    },
    {
      "inputs": [],
      "payable": false,
      "stateMutability": "nonpayable",
      "type": "constructor"
    },
    {
      "anonymous": false,
      "inputs": [
        {
          "indexed": false,
          "name": "_claimableAmount",
          "type": "uint256"
        },
        {
          "indexed": false,
          "name": "_stakedAmount",
          "type": "uint256"
        }
      ],
      "name": "Claimed",
      "type": "event"
    },
    {
      "anonymous": false,
      "inputs": [
        {
          "indexed": false,
          "name": "_fttAmount",
          "type": "uint256"
        },
        {
          "indexed": false,
          "name": "_stakeMapAmount",
          "type": "uint256"
        },
        {
          "indexed": false,
          "name": "_totalStakedAmount",
          "type": "uint256"
        }
      ],
      "name": "Staked",
      "type": "event"
    },
    {
      "constant": false,
      "inputs": [
        {
          "name": "newZoi",
          "type": "address"
        }
      ],
      "name": "updateZoiToken",
      "outputs": [],
      "payable": false,
      "stateMutability": "nonpayable",
      "type": "function"
    },
    {
      "constant": false,
      "inputs": [
        {
          "name": "newFtt",
          "type": "address"
        }
      ],
      "name": "updateFttToken",
      "outputs": [],
      "payable": false,
      "stateMutability": "nonpayable",
      "type": "function"
    },
    {
      "constant": false,
      "inputs": [
        {
          "name": "issuer",
          "type": "address"
        }
      ],
      "name": "setZoiIssuer",
      "outputs": [],
      "payable": false,
      "stateMutability": "nonpayable",
      "type": "function"
    },
    {
      "constant": false,
      "inputs": [
        {
          "name": "_amount",
          "type": "uint256"
        }
      ],
      "name": "stakeFtt",
      "outputs": [
        {
          "name": "",
          "type": "bool"
        }
      ],
      "payable": false,
      "stateMutability": "nonpayable",
      "type": "function"
    },
    {
      "constant": false,
      "inputs": [
        {
          "name": "_receiver",
          "type": "address"
        }
      ],
      "name": "claim",
      "outputs": [
        {
          "name": "",
          "type": "uint256"
        }
      ],
      "payable": false,
      "stateMutability": "nonpayable",
      "type": "function"
    }
  ],
  "bytecode": "0x6080604052670de0b6b3a76400006001556103e860025534801561002257600080fd5b50336000806101000a81548173ffffffffffffffffffffffffffffffffffffffff021916908373ffffffffffffffffffffffffffffffffffffffff160217905550610e63806100726000396000f3006080604052600436106100a4576000357c0100000000000000000000000000000000000000000000000000000000900463ffffffff1680631e83409a146100a95780632f54bf6e14610100578063351375e31461015b5780634302a2f21461019e5780638da5cb5b146101f5578063911a9cd01461024c578063dcb431911461028f578063e0d17af014610318578063eaf676941461035d578063f2fde38b146103a0575b600080fd5b3480156100b557600080fd5b506100ea600480360381019080803573ffffffffffffffffffffffffffffffffffffffff1690602001909291905050506103e3565b6040518082815260200191505060405180910390f35b34801561010c57600080fd5b50610141600480360381019080803573ffffffffffffffffffffffffffffffffffffffff16906020019092919050505061066d565b604051808215151515815260200191505060405180910390f35b34801561016757600080fd5b5061019c600480360381019080803573ffffffffffffffffffffffffffffffffffffffff1690602001909291905050506106c6565b005b3480156101aa57600080fd5b506101df600480360381019080803573ffffffffffffffffffffffffffffffffffffffff16906020019092919050505061070a565b6040518082815260200191505060405180910390f35b34801561020157600080fd5b5061020a610722565b604051808273ffffffffffffffffffffffffffffffffffffffff1673ffffffffffffffffffffffffffffffffffffffff16815260200191505060405180910390f35b34801561025857600080fd5b5061028d600480360381019080803573ffffffffffffffffffffffffffffffffffffffff169060200190929190505050610747565b005b34801561029b57600080fd5b506102f0600480360381019080803573ffffffffffffffffffffffffffffffffffffffff169060200190929190803573ffffffffffffffffffffffffffffffffffffffff16906020019092919050505061078b565b6040518084815260200183151515158152602001828152602001935050505060405180910390f35b34801561032457600080fd5b50610343600480360381019080803590602001909291905050506107cf565b604051808215151515815260200191505060405180910390f35b34801561036957600080fd5b5061039e600480360381019080803573ffffffffffffffffffffffffffffffffffffffff169060200190929190505050610c94565b005b3480156103ac57600080fd5b506103e1600480360381019080803573ffffffffffffffffffffffffffffffffffffffff169060200190929190505050610d6c565b005b600080600060056000600460009054906101000a900473ffffffffffffffffffffffffffffffffffffffff1673ffffffffffffffffffffffffffffffffffffffff1673ffffffffffffffffffffffffffffffffffffffff16815260200190815260200160002060003373ffffffffffffffffffffffffffffffffffffffff1673ffffffffffffffffffffffffffffffffffffffff1681526020019081526020016000206000015491506104a0600583610dc390919063ffffffff16565b90506104b760025482610dc390919063ffffffff16565b90506104ce60015482610dfe90919063ffffffff16565b90507fc83b5086ce94ec8d5a88a9f5fea4b18a522bb238ed0d2d8abd959549a80c16b86105a56005806000600460009054906101000a900473ffffffffffffffffffffffffffffffffffffffff1673ffffffffffffffffffffffffffffffffffffffff1673ffffffffffffffffffffffffffffffffffffffff16815260200190815260200160002060003373ffffffffffffffffffffffffffffffffffffffff1673ffffffffffffffffffffffffffffffffffffffff16815260200190815260200160002060000154610dc390919063ffffffff16565b60056000600460009054906101000a900473ffffffffffffffffffffffffffffffffffffffff1673ffffffffffffffffffffffffffffffffffffffff1673ffffffffffffffffffffffffffffffffffffffff16815260200190815260200160002060003373ffffffffffffffffffffffffffffffffffffffff1673ffffffffffffffffffffffffffffffffffffffff16815260200190815260200160002060000154604051808381526020018281526020019250505060405180910390a18092505050919050565b60008173ffffffffffffffffffffffffffffffffffffffff166000809054906101000a900473ffffffffffffffffffffffffffffffffffffffff1673ffffffffffffffffffffffffffffffffffffffff16149050919050565b80600460006101000a81548173ffffffffffffffffffffffffffffffffffffffff021916908373ffffffffffffffffffffffffffffffffffffffff16021790555050565b60066020528060005260406000206000915090505481565b6000809054906101000a900473ffffffffffffffffffffffffffffffffffffffff1681565b80600360006101000a81548173ffffffffffffffffffffffffffffffffffffffff021916908373ffffffffffffffffffffffffffffffffffffffff16021790555050565b6005602052816000526040600020602052806000526040600020600091509150508060000154908060010160009054906101000a900460ff16908060020154905083565b6000600460009054906101000a900473ffffffffffffffffffffffffffffffffffffffff1673ffffffffffffffffffffffffffffffffffffffff166323b872dd3330856040518463ffffffff167c0100000000000000000000000000000000000000000000000000000000028152600401808473ffffffffffffffffffffffffffffffffffffffff1673ffffffffffffffffffffffffffffffffffffffff1681526020018373ffffffffffffffffffffffffffffffffffffffff1673ffffffffffffffffffffffffffffffffffffffff1681526020018281526020019350505050602060405180830381600087803b1580156108ca57600080fd5b505af11580156108de573d6000803e3d6000fd5b505050506040513d60208110156108f457600080fd5b81019080805190602001909291905050505061090f336103e3565b506109c48260056000600460009054906101000a900473ffffffffffffffffffffffffffffffffffffffff1673ffffffffffffffffffffffffffffffffffffffff1673ffffffffffffffffffffffffffffffffffffffff16815260200190815260200160002060003373ffffffffffffffffffffffffffffffffffffffff1673ffffffffffffffffffffffffffffffffffffffff16815260200190815260200160002060000154610e1990919063ffffffff16565b60056000600460009054906101000a900473ffffffffffffffffffffffffffffffffffffffff1673ffffffffffffffffffffffffffffffffffffffff1673ffffffffffffffffffffffffffffffffffffffff16815260200190815260200160002060003373ffffffffffffffffffffffffffffffffffffffff1673ffffffffffffffffffffffffffffffffffffffff16815260200190815260200160002060000181905550610add8260066000600460009054906101000a900473ffffffffffffffffffffffffffffffffffffffff1673ffffffffffffffffffffffffffffffffffffffff1673ffffffffffffffffffffffffffffffffffffffff16815260200190815260200160002054610e1990919063ffffffff16565b60066000600460009054906101000a900473ffffffffffffffffffffffffffffffffffffffff1673ffffffffffffffffffffffffffffffffffffffff1673ffffffffffffffffffffffffffffffffffffffff168152602001908152602001600020819055507fc8acfabcfb3af3df23b7b8a1aa1371d042bee71e137eeedc881ffa8f3c4462618260056000600460009054906101000a900473ffffffffffffffffffffffffffffffffffffffff1673ffffffffffffffffffffffffffffffffffffffff1673ffffffffffffffffffffffffffffffffffffffff16815260200190815260200160002060003373ffffffffffffffffffffffffffffffffffffffff1673ffffffffffffffffffffffffffffffffffffffff1681526020019081526020016000206000015460066000600460009054906101000a900473ffffffffffffffffffffffffffffffffffffffff1673ffffffffffffffffffffffffffffffffffffffff1673ffffffffffffffffffffffffffffffffffffffff1681526020019081526020016000205460405180848152602001838152602001828152602001935050505060405180910390a160019050919050565b600360009054906101000a900473ffffffffffffffffffffffffffffffffffffffff1673ffffffffffffffffffffffffffffffffffffffff1663eaf67694826040518263ffffffff167c0100000000000000000000000000000000000000000000000000000000028152600401808273ffffffffffffffffffffffffffffffffffffffff1673ffffffffffffffffffffffffffffffffffffffff168152602001915050600060405180830381600087803b158015610d5157600080fd5b505af1158015610d65573d6000803e3d6000fd5b5050505050565b610d753361066d565b1515610d8057600080fd5b806000806101000a81548173ffffffffffffffffffffffffffffffffffffffff021916908373ffffffffffffffffffffffffffffffffffffffff16021790555050565b6000806000841415610dd85760009150610df7565b8284029050828482811515610de957fe5b04141515610df357fe5b8091505b5092915050565b6000808284811515610e0c57fe5b0490508091505092915050565b6000808284019050838110151515610e2d57fe5b80915050929150505600a165627a7a72305820e8e7f59b7781fdfdf8ce98ee3e2efc784955a81c778a914e4d665c7f218e4f080029",
  "source": "pragma solidity ^0.4.23;\nimport \"./Ownable.sol\";\nimport \"./SafeMath.sol\";\nimport \"./ZoiToken.sol\";\nimport \"./TestFTT.sol\";\nimport \"./ERC20.sol\";\n\n\ncontract Staking is Ownable {\n\n  using SafeMath for uint256;\n\n  uint BIG_NUMBER = 10**18;\n  uint DECIMAL = 10**3;\n\n  struct stakingInfo {\n    uint256 amount;\n    bool requested;\n    uint releaseDate;\n  }\n\n  ZoiToken private zoiToken;\n  ERC20 private fttToken;\n\n//  ZoiToken zoiTokenContract = ZoiToken(zoiToken);\n//  TestFTT testFttContract = TestFTT(fttToken);\n\n  mapping (address => mapping(address => stakingInfo)) public StakeMap;\n  mapping (address => uint) public tokenTotalStaked;\n\n  event Claimed(uint256 _claimableAmount, uint256 _stakedAmount);\n  event Staked(uint256 _fttAmount, uint256 _stakeMapAmount, uint256 _totalStakedAmount);\n\n  constructor() public {\n  }\n\n  //for test only\n  function updateZoiToken(address newZoi) {\n    zoiToken = ZoiToken(newZoi);\n  }\n\n  function updateFttToken(address newFtt) {\n    fttToken = ERC20(newFtt);\n  }\n\n  function setZoiIssuer(address issuer) external {\n    zoiToken.setZoiIssuer(issuer);\n  }\n\n  /**\n    * @dev stake a specific amount to a token\n    * @param _amount the amount to be staked.\n    * To meet track and trace regulatory requirements, pharmaceutical companies can stake 100 FTT tokens to\n    * generate a batch*** of Compliance Tracking tokens\n    */\n\n  function stakeFtt(uint256 _amount) external returns (bool) {\n//    require(_amount >= 100 ether); //convert properly from wei\n    fttToken.transferFrom(msg.sender, address(this), _amount);\n    claim(msg.sender);\n    StakeMap[fttToken][msg.sender].amount = StakeMap[fttToken][msg.sender].amount.add(_amount);\n    tokenTotalStaked[fttToken] = tokenTotalStaked[fttToken].add(_amount);\n    emit Staked(_amount, StakeMap[fttToken][msg.sender].amount, tokenTotalStaked[fttToken]);\n    return true;\n  }\n\n  /**\n    * @dev pay out ZOI to stakers, update how much per FTT token each staker can claim\n    * @param _reward the aggregate amount to be send to all stakers\n    */\n//  function distribute(uint _reward) external returns (bool){\n//    require(tokenTotalStaked[fttToken] >= 100 ether);\n//    uint reward = _reward.mul(BIG_NUMBER); //simulate floating point operations\n//    uint rewardAddedPerToken = reward/tokenTotalStaked[_tokenAddr];\n//    tokenCummRewardPerStake[_tokenAddr] = tokenCummRewardPerStake[_tokenAddr].add(rewardAddedPerToken);\n//    return true;\n//  }\n\n  /**\n    * @dev claim dividends for a particular token that user has stake in\n    * @param _receiver the address which the claim is paid to\n    */\n  function claim(address _receiver) public returns (uint) {\n    uint256 stakedAmount = StakeMap[fttToken][msg.sender].amount;\n    //the amount per token for this user for this claim\n//    uint amountOwedPerToken = tokenCummRewardPerStake[_tokenAddr].sub(userCummRewardPerStake[_tokenAddr][msg.sender]);\n    uint256 claimableAmount = stakedAmount.mul(5); //total amount that can be claimed by this user\n    claimableAmount = claimableAmount.mul(DECIMAL); //simulate floating point operations\n    claimableAmount = claimableAmount.div(BIG_NUMBER); //simulate floating point operations\n//    zoiTokenContract.issueZoi(_receiver, claimableAmount);\n    emit Claimed(StakeMap[fttToken][msg.sender].amount.mul(5), StakeMap[fttToken][msg.sender].amount);\n    return claimableAmount;\n\n  }\n\n//  function releaseStake(address _tokenAddr, address[] _stakers, uint[] _amounts, address _dest) isValidToken(_tokenAddr) constant external returns (bool){\n//    require(_stakers.length == _amounts.length);\n//    for (uint i =0; i< _stakers.length; i++){\n//      require(ERC20(_tokenAddr).transfer(_dest,_amounts[i]));\n//      StakeMap[_tokenAddr][_stakers[i]].amount -= _amounts[i];\n//    }\n//    return true;\n//\n//  }\n}\n",
  "sourcePath": "/Users/elenaderymova/projects/work/farmatrust/zoi-platform/contracts/Staking.sol",
  "compiler": {
    "name": "solc",
    "version": "0.4.24+commit.e67f0147.Emscripten.clang"
  },
  "schemaVersion": "2.0.0",
  "updatedAt": "2018-11-29T12:44:13.835Z"
}